:020000040800F2
:10000000384E0020A90100084D2C0008452C00089E
:10001000492C0008FD0E0008052D00080000000016
:10002000000000000000000000000000A12C0008FB
:100030000D0F000800000000512C0008C52C00081E
:10004000C3010008C3010008C3010008C301000880
:10005000C3010008C3010008C3010008C301000870
:10006000C3010008C3010008C3010008010F000814
:10007000C3010008C3010008C3010008C301000850
:10008000C3010008C3010008C3010008C301000840
:10009000C3010008C3010008C3010008C301000830
:1000A000C3010008F92C0008C3010008C3010008BF
:1000B000C3010008C3010008C3010008C301000810
:1000C000C3010008C3010008C3010008C301000800
:1000D000C3010008C3010008C3010008C3010008F0
:1000E000C3010008C3010008C301000800F002F8C2
:1000F00000F04AF80AA090E8000C82448344AAF178
:100100000107DA4501D100F03FF8AFF2090EBAE875
:100110000F0013F0010F18BFFB1A43F0010318473B
:100120005857000078570000103A24BF78C878C1AB
:10013000FAD8520724BF30C830C144BF04680C60ED
:10014000704700000023002400250026103A28BF35
:1001500078C1FBD8520728BF30C148BF0B60704739
:10016000662905F02583642900F05E800020704731
:100170001FB500F08DFC04000020002104F0C8FE33
:10018000E0601FBD10B510BD00F082FD1146FFF705
:10019000EFFF02F0B9FD00F0A0FD03B4FFF7F2FF9E
:1001A00003BC00F0E3FD0000094880470948004710
:1001B000FEE7FEE7FEE7FEE7FEE7FEE7FEE7FEE717
:1001C000FEE7FEE704480549054A064B7047000074
:1001D000F52C0008ED00000838480020384E0020BB
:1001E000384A0020384A00200FB41CB50C0007AA7A
:1001F000009007D04142A14202D32044401E01E0BA
:100200004FF0FF30074B7B4469460190069800F0A1
:10021000F2FB0020002C01D0009908701CBC5DF896
:1002200014FB0000130800002DE9F04106460024ED
:1002300010687529314616A510D0AFF3008000284C
:1002400002DA404213A507E031688A0701D512A5FA
:1002500002E0490704D511A5012401E0AFF30080B5
:1002600000210A2206F1240709E0B0FBF2FCB0FBF2
:10027000F2F302FB1C00303078541846491C002869
:10028000F3D123462A463046BDE8F04100F047B995
:10029000000000002D0000002B00000020000000E6
:1002A0002DE9F0474FF0000A89460446C0F820A027
:1002B0002046E1688847002876D0252806D0D4E972
:1002C00001219047206A401C2062F1E7E168204646
:1002D00000258847C4F81CA006460027C4F818A0CB
:1002E0002A2E09D0304604F00BFE38B304EB870801
:1002F000303EC8F8186019E059F8041B204604EB9A
:1003000087029161E1688847012F064618D1E069AC
:10031000002820DA25F020051DE0D8F8180000EBB1
:10032000800006EB40003038C8F818002046E1682D
:100330008847064604F0E4FD0028EED1012F0AD0DC
:100340002E2E08D12046E16888477F1C0646022FE2
:1003500045F02005C4DBA069002803DA404245F0DF
:100360000105A061E80701D025F01005B6B1A6F19E
:100370004100192802D8203645F400654A46314626
:10038000204625604D46FFF7EBFE58B1012806D008
:10039000ED1D25F0070000F1080989E704E005F1EB
:1003A000040985E730468AE7206ABDE8F08710B582
:1003B000431C02E010F8011B71B18107FAD14FF024
:1003C000013202C88C1A8C4314EAC211F9D0C01A47
:1003D0000A0603D0C01E10BDC01A10BD0A0401D009
:1003E000801E10BD0902FCD0401E10BD032A40F241
:1003F000308010F0030C00F0158011F8013BBCF1C7
:10040000020F624498BF11F801CB00F8013B38BFDE
:1004100011F8013BA2F1040298BF00F801CB38BFEC
:1004200000F8013B11F0030300F00083083AC0F02C
:10043000088051F8043B083A51F804CBA0E80810B2
:10044000F5E7121D5CBF51F8043B40F8043BAFF3E5
:100450000080D20724BF11F8013B11F801CB48BF3F
:1004600011F8012B24BF00F8013B00F801CB48BF75
:1004700000F8012B704702F0FF0343EA032242EA2F
:10048000024200F024B84FF000020429C0F01280AC
:1004900010F0030C00F01B80CCF1040CBCF1020F37
:1004A00018BF00F8012BA8BF20F8022BA1EB0C010C
:1004B00000F00DB85FEAC17C24BF00F8012B00F802
:1004C000012B48BF00F8012B70474FF0000200B528
:1004D000134694469646203922BFA0E80C50A0E867
:1004E0000C50B1F12001BFF4F7AF090728BFA0E815
:1004F0000C5048BF0CC05DF804EB890028BF40F8E1
:10050000042B08BF704748BF20F8022B11F0804F22
:1005100018BF00F8012B70477047704770472DE9EE
:10052000F0470D4699469246044600F124080168BA
:10053000880604D5E06921F01001216000E0012067
:10054000A84201DD471B00E00027A1697A1902EBF0
:100550000900081AA0612078C00602D42046AFF333
:100560000080002608E0D4E901211AF8060090472F
:10057000206A401C761C20624E45F4DB2078C006C1
:100580000AD52046AFF3008006E0D4E901213020EF
:100590009047206A401C2062381EA7F10107F4DC56
:1005A00007E0D4E9012118F805009047206A401CB3
:1005B0002062281EA5F10105F3DC2046AFF3008080
:1005C0002078000602D50220BDE8F0870120FBE775
:1005D0002DE9FF4F0C461E464FF0FF378BB0D2E996
:1005E0000001DDF860800A908A46C1F30A5505B91A
:1005F0003D46002108464FF00000BAF1000F00F41C
:10060000400005DA00EB80004FF4400101EA5000A1
:100610004FEA9059B9F1010F00DDB9460A9850EA46
:100620004A000ED044F61050A5F2FF3545432F1472
:10063000B8F1000F1ED07542291E1EDDC9F100025F
:100640001CE0B8F1010F4FF0000001D0302103E0B1
:10065000F24305E02154401CB042FBDB304600224F
:10066000002121540B99C1F80880C1E900200FB086
:10067000BDE8F08FBD1B6D1CDEE74A4600DA69421B
:1006800006A800F08FFA06AB93E8070003AB83E8F7
:10069000070050460A9904F057F88DE80700A0F5C6
:1006A00000501F3800900398002D0ADD42F21F0110
:1006B0004A460844002303A90390684604F0C0FAA0
:1006C00009E0A0F500504A461F38002303A9039013
:1006D000684604F0CAFA8DE807000004000C03D055
:1006E0004FF0FF30410800E01046B8F1000F03D092
:1006F0000022009215461EE0751E05D400F0CCF9CC
:10070000303262556D1EF9D5B3460122084302D03E
:1007100000227F1C04E02078302801D100227F1EB7
:10072000002A099784D01DE0112D07DA00F0B4F9F2
:10073000303262556D1C50EA0102F5D1084302D0F7
:100740000098C8B10EE00021681E05E0235C625CE1
:1007500063542254401E491C8142F7DBAB46A81B60
:10076000401E0990002004F80B000B98099AC0F86D
:100770000880C0E9002B7AE711264FF0000857E700
:100780002DE9F04F88460446D21D22F0070191B0B2
:10079000D1E90001CDE90A0104F09EFB02460B9865
:1007A000C00F01D02D2007E02068810701D52B2044
:1007B00002E0202101EAC000032A099001D0072AA3
:1007C00005DB03464146204600F0ACF90BE12078FA
:1007D000800601D5E06900E00620B8F1650F81468A
:1007E00006D0B8F1660F18D0B8F1670F70D131E0BC
:1007F0000020B9F1110F009001DB112301E009F194
:1008000001030AAA01A90CA8FFF7E2FEDDE90C70BA
:10081000002609F10105834647E001204B46009080
:100820004FF000470AAA01A90CA8FFF7D1FEDDE9A5
:100830000DB00C995D46002610B909F101000D18A4
:10084000B9EB050003D4C0F1FF3609F10105A5EBB2
:1008500009002BE0B9F1010F01DA4FF00109002086
:10086000B9F1110F0090484601DD112300E0034665
:100870000AAA01A90CA8FFF7ABFEDDE90C704D46F2
:1008800000268346207800070AD4AB4500DA5D468F
:1008900001A8012D04DD411911F8011C302907D0F0
:1008A0004F4502DA17F1040F04DA012082460FE007
:1008B0006D1EEEE7002F02DCED1B3E4403E0781CCA
:1008C000A84200DD7D1CB81B00F1010A4FF0004773
:1008D0002078000703D4AA4501DB4FF0FF3A00213E
:1008E000B7F1004F0DF143088DF8431024D00220DA
:1008F0002B23002F01DA7F422D230A21021EA0F1B3
:10090000010000DC5FB197FBF1FC97FBF1F201FB0A
:100910001C7C17460CF1300C08F801CDEEE7A8F16D
:10092000010003702188090501D5452100E06521FA
:10093000A0F1010800F8011C09980FA9A1EB080714
:10094000FF1D00B10120411901EBEA70A169384493
:10095000081A401EA0612078C00602D42046AFF3DA
:100960000080099828B1D4E901219047206A401CF1
:1009700020622078C00622D52046AFF300801EE01A
:10098000002E04DBB34502DD01A8805D00E03020CD
:10099000D4E901219047206A401C2062761CAAF10C
:1009A00001005FEA000A0AD100F072F8C06801682D
:1009B000405CD4E901219047206A401C2062281E37
:1009C000A5F10105DCDC07E0D4E9012118F8010BF1
:1009D0009047206A401C2062381EA7F10107F3DC13
:1009E0002046AFF30080032011B041E601694A1CA4
:1009F00002610878704700B58FB0CDE90131002160
:100A0000059105497944CDE9031011466846FFF781
:100A100047FC0FB000BD0000E5FFFFFFD1E9002358
:100A20009A4202D2531C0B601070704710B5203AE6
:100A3000C0F00B80B1E81850A0E81850B1E8185089
:100A4000A0E81850203ABFF4F5AF5FEA027C24BF5B
:100A5000B1E81850A0E8185044BF18C918C0BDE844
:100A600010405FEA827C24BF51F8043B40F8043B0D
:100A700008BF7047D20728BF31F8023B48BF11F8C2
:100A8000012B28BF20F8023B48BF00F8012B70471C
:100A9000004870473000002030B5B0F10A0271F113
:100AA00000034FEA900E4EEA817EB0EB0E0061EB40
:100AB00091014FEA101E4EEA017E10EB0E0041EB51
:100AC00011114FEA102E4EEA016E10EB0E0041EBB1
:100AD00011214FEA104E4EEA014E10EB0E0041EB91
:100AE0001141401841F100014FEAD00040EA417045
:100AF0004FEAD1014FEA810444EA907410EB80057B
:100B000044EB01046D1944EB0404521BA3414FF064
:100B1000000348BF0A3200D530BD401C41F100013E
:100B200030BD00002DE9F0411F4604460326016850
:100B3000072A01F4006004DB08B116A505E016A53C
:100B400003E008B115A500E015A521F01000206014
:100B5000A069C01EA0610FB1401EA0612046AFF386
:100B600000804FB1D4E9012138469047206A401CEB
:100B70002062C01C206206E0206AFAE7D4E9012165
:100B800015F8010B9047761EF8D22046AFF300808F
:100B9000BDE8F0814E414E006E616E00494E460048
:100BA000696E66002DE9F047814616468AB03548E1
:100BB00078440DC88DE80D0032487844801C03ACA1
:100BC0000DC884E80D0041F69B300844372190FBA6
:100BD000F1F290FBF1F5A5F1800501FB12041B3C3D
:100BE00002D56442012000E00020DFF898A0804692
:100BF0000027FA44AAF1BE0A0EE0E0070AD0324606
:100C0000684607EB470101230AEB810104F02DF848
:100C10008DE8070064107F1C002CEED1194F7F4433
:100C2000AE3F19E0E80715D007EB04100DF1180AE4
:100C300090E80E008AE80E00C068F04201D19819D1
:100C400008903246012306A903A804F00EF803AB6E
:100C500083E807006D10641C002DE3D14FF0010301
:100C600032466946B8F1000F03A802D003F0E8FF4E
:100C700001E003F0FAFFC9E90001C9F808200AB051
:100C8000BDE8F0877C4C0000004870471000002051
:100C90007546FFF7F9FFAE4605006946534620F05A
:100CA0000700854618B020B5FFF78CFABDE8204054
:100CB0004FF000064FF000074FF000084FF0000B18
:100CC000AC46ACE8C009ACE8C009ACE8C009ACE887
:100CD000C00921F007018D46704710B50446AFF3F7
:100CE00000802046BDE81040FFF757BA4FF0013CA6
:100CF00050F8042B51F8043B9A4221D1A2EB0C038B
:100D0000934313EACC1317D150F8042B51F8043B4A
:100D10009A4215D1A2EB0C03934313EACC130BD1E7
:100D200050F8042B51F8043B9A4209D1A2EB0C0372
:100D3000934313EACC13DBD04FF00000704700BFA1
:100D4000D01A01BAB1FA81F101F0180122FA01F0CA
:100D5000CB40DBB2C0B2C01AC1F120012CFA01F3C2
:100D6000D11A914311EAC311E6D170470149182005
:100D7000ABBEFEE72600020070470000B0B5044697
:100D800000688168C90709D0816821F0010181608C
:100D900000F066FF21688968C90701D10020B0BD55
:100DA000054602E08068C007F8D000F059FF411BFB
:100DB00020680329F6D38168C907F3D0A06A40F000
:100DC0001000A062E06A40F00100E0620120B0BDC6
:100DD0000146406A826A12F0500F03D0006A026B2B
:100DE000084610470168826A42F40072826289688C
:100DF00001F46021B1F5602F01D1017B11B100F048
:100E0000DDB900BF816A21F480718162816AC90401
:100E100048BF00F0D3B9816A41F00101816200F05E
:100E2000CDB90000406A816A41F040018162C16A27
:100E300041F00401C16200F0D7B90000406A00F03F
:100E4000D1B90000B0B582B00446002001902168FD
:100E50008A68D2074FD1886840F00100886040F26C
:100E60000800C2F2000000684DF68361C4F21B3135
:100E7000A0FB0101880C01900198A0B101980138F4
:100E80000190019878B1019801380190019850B112
:100E9000019801380190019828B10198013801901A
:100EA00001980028EAD100F0DBFE21688968C907B3
:100EB0001CD1054603E000BF8068C0071AD100F0CE
:100EC000CFFE411B20680329F6D38168C907F3D1FF
:100ED000A06A40F01000A062E06A40F00100E06209
:100EE000002084F82400012002B0B0BD002002B030
:100EF000B0BD00BF002002B0B0BD0000FEE70000A2
:100F000040F23020C2F2000000F03EBC704700000A
:100F1000EFF3108072B600BFFEE7000070B582B03C
:100F200004460020019094F82400012804D10225F1
:100F3000284602B070BD00BF012084F8240020467E
:100F4000FFF71CFF054600286CD1A06A41F2021190
:100F500088430230A06240F20800C2F20000066836
:100F6000022000F06FFFB6FBF0F040000190019806
:100F7000A8B100BF019801380190019878B101989B
:100F800001380190019850B1019801380190019801
:100F900028B101980138019001980028EAD1204633
:100FA000FFF750FF2068816841F00801816000F080
:100FB00057FE21688A6812070ED4886840F0040042
:100FC000886000F04DFE21688968490714D401202B
:100FD0006FF0030122E000BF064602E088680007C8
:100FE000EBD500F03DFE801B21680B28F6D3886806
:100FF0000007F3D50EE000BF064602E08068400718
:10100000E5D500F02DFE811B20680B29F6D3816801
:101010004907F3D5012510206FF01201A26A114093
:101020000843A062002084F82400284602B070BD66
:1010300010B581B00022009290F82420012A03D13B
:101040000221084601B010BD4B680122062B80F832
:10105000242017D8D0F800C003EB83035A1F1F23A6
:10106000DCF834E003FA02F40B682EEA040403FA15
:1010700002F22243CCF83420092B03EB430219D9A6
:1010800036E000BFD0F800C00C2B03EB83021DD864
:10109000233A1F23DCF830E003FA02F40B682EEA4F
:1010A000040403FA02F22243CCF83020092B03EBAC
:1010B00043021DD8DCF81030072489689440A3430C
:1010C00091401943CCF81010002130E0413A1F2321
:1010D000DCF82CE003FA02F40B682EEA040403FAAD
:1010E00002F22243CCF82C20092B03EB4302E1D976
:1010F000DCF80CE01E3A0724896894402EEA0404C8
:10110000914023F001022143102ACCF80C100DD19C
:1011100042F20841C4F20101A1F1080294450DD048
:10112000816A41F020018162012100E0002100225A
:1011300080F82420084601B010BD00BF0A681202E2
:1011400030D40A68102B42F400020A602CD140F21D
:101150000801C2F2000109684DF68362C4F21B3235
:10116000A1FB0212910C01EB810149000091009951
:10117000E1B10099013900910099C9B10099013993
:1011800000910099B1B1009901390091009999B18C
:10119000009901390091009900294FF00001E8D130
:1011A000C5E700BF0021C2E70021C0E70021BEE77C
:1011B0000021BCE70021BAE70021B8E710B540F2F2
:1011C0007004C2F20004A06800210022002302F093
:1011D000A3FCE068002100220023BDE8104002F0DB
:1011E0009BBC00007047000070470000B0B50028AD
:1011F00000F0A8800446806A20B121688868C00792
:101200000BD114E00020E06284F82400204600F0B6
:101210009BF821688868C00709D0886820F0010021
:10122000886000F01DFD21688A68D20726D1A06A77
:10123000C0063AD4A06A41F2021290430230A06282
:10124000E069D4E9013240EA030C531EB3FA83F398
:101250005D091346B2F5807F18BF2B02207D257BE8
:1012600001284CEA450030D135B3A56A45F0200588
:10127000A562E56A45F00105E56226E0054602E063
:101280008868C007D3D000F0EBFC401B216803281E
:10129000F6D38868C007F3D0A06A40F01000A062BF
:1012A000E06A40F00100E062A06AA06A40F010002D
:1012B000A0620120B0BD00BFD4F818C04EF60005F2
:1012C000CFF6FF7505EB4C352B434D68B2F5807FAB
:1012D00025F4694543EA05034B608B684FF2FD75C1
:1012E000CFF6E17503EA050343EA00038B6001D002
:1012F000012A07D122690023CFF6F07303EB0252D3
:1013000001E000BF0022CB6A23F470031A43CA62D3
:10131000896840F6FE62CFF61F721140814207D104
:101320000020E062A16A012262F30101A162B0BD66
:10133000A06A40F0100020F00200A062E06A40F0D5
:101340000100E0620120B0BD70B586B0044640F6F1
:101350000000C4F20100216800F5E052002691422D
:101360000596049602D006B070BD00BF41F2180188
:10137000C4F202010A6842F400720A600A6802F4C8
:1013800000720192019A0A6842F004020A60096838
:1013900001F004010191019955210291032103916A
:1013A00002A900F049FB40F230250820C2F20005F6
:1013B000C4F202004FF40072C5E9000605F1100006
:1013C00080214FF400634CC02846C5E90261EE61FC
:1013D00000F0A8FA002818BFFFF79AFD25626C629A
:1013E00006B070BD70B515460446006842F60002AE
:1013F000C4F2010290420E4605D042F20041C4F20E
:101400000101884209D142F20440C4F2010000689F
:1014100010F4702F1CBF012070BD94F82400012827
:1014200004BF022070BD012084F824002046FFF78D
:1014300009FD18B1002184F8241070BD42F2044067
:101440002168A26AC4F2010040F601739A4300F5D4
:101450007F7302F580729942A26243D0A06A20F4A1
:101460008010A0624868400504D5A06A012262F39A
:101470000D30A062A26A0020D2044FF0000244BFE7
:10148000E26A22F00602E26284F82400206A40F652
:10149000D152C0F6000240F63D6340F6256C00F1E3
:1014A000280EC0F60003C0F6000C8EE80C106FF09A
:1014B00002020A608A682B4642F480728A604C31CC
:1014C000324600F06BFA2068816801F4602281687E
:1014D000B2F5602F0CBF41F4A00141F4801181608E
:1014E000002070BD026812F4702FB7D0A26A42F4D7
:1014F0008012A26200684005BCD5B6E710B590F82E
:1015000020E0D0F800C0AEF1010EBEF1010FDCF812
:1015100008E011D81EF0E05F18D0CEF3016EBEF1E6
:10152000030F1DD100F1240101204FF400020B68CC
:101530001A430A6010BD00BF00F1240101204FF4DE
:1015400080220B681A430A6010BD00BF00F124011D
:1015500001204FF400120B681A430A6010BD00BF4F
:10156000012000FA0EF01860886828B14B68CC683A
:1015700044EAC303034303E00868CB6843EA4053EB
:101580000CEB0E10C0F880310B69C0F88431097D76
:10159000012905D100F5C2710B6843F480730B601B
:1015A0005168C0F88C11126800F5C071C0F888212C
:1015B000002001220B681A430A6010BDB0B5C8B103
:1015C000044690F8200010B9204600F071F8206819
:1015D000016841F00101016000F042FB054600BFD7
:1015E00020684168C90707D100F03AFB401B0B286F
:1015F000F6D312E00120B0BD016821F002010160C4
:1016000000F02EFB054600BF2068416889070DD514
:1016100000F026FB401B0B28F6D3606A052140F43E
:1016200000306062012084F82010B0BD217E026885
:10163000012922F0800208BF80320260617E0268C8
:10164000012922F0400208BF40320260A17E0268F8
:10165000012922F0200208BF20320260E17E0268E8
:10166000012922F0100218BF10320260217F0268A7
:10167000012922F0080208BF08320260617F026877
:10168000012922F0040208BF04320260D4E901C239
:10169000D4E9033561691A432A431143ACF10102CD
:1016A0001143C16100200121606284F82010B0BDA7
:1016B000B0B586B040F60004C4F201040068A4F599
:1016C000244200219042059102D006B0B0BD00BF77
:1016D00041F21800C4F20200426802AD42F000720A
:1016E0004260426802F000720192019A026842F080
:1016F00004020260006800F00400019001984FF4B9
:101700000060CDE9020104912046294600F094F9D9
:101710004FF4805002900220039003200590204651
:10172000294600F089F906B0B0BD0000B0B5044606
:1017300090F8200001281DD1022084F820002068A4
:10174000016821F00101016000F08AFA054600BF3E
:1017500020684068C00713D000F082FA401B0B28B5
:10176000F6D3606A40F400306062052084F82000FF
:101770000120B0BD606A40F4002060620120B0BD6D
:1017800000206062B0BD000010B5D0E90FCE016846
:10179000DCF800300A6823FA0EF35C072AD512F051
:1017A000040427D00A68920603D40A6822F00402CF
:1017B0000A602F22C4F20202914240F20402C4F2F3
:1017C000020259DD3023C4F20203994270D044234F
:1017D000C4F20203994271D05823C4F20203994221
:1017E00078D14FF480231360C16A002940F09780BC
:1017F0006EE000BF9C0727D512F0020424D00A68CF
:10180000920606D40A6822F00A020A60012280F8D1
:1018100021202F22C4F20202914240F20402C4F2BB
:10182000020239DD3023C4F2020399425ED0442320
:10183000C4F2020399425DD05823C4F202039942D4
:101840005ED14FF4003363E01B0741D512F008026C
:1018500008BF10BD0A6822F00E020A60012101FAD9
:101860000EF2CCF804208163016B4FF480720029E2
:10187000028454D12CE000BF0823C4F20203994231
:1018800022D01C23C4F20203994223D140231360C7
:10189000C16A002943D11BE00823C4F20203994224
:1018A0002CD01C23C4F20203994229D120232FE01B
:1018B0004FF480631360C16A89BB09E04FF4804331
:1018C0001360C16A59BB03E004231360C16A31BBD2
:1018D00010BD00BF02F168044FF08063A14208BF51
:1018E0004FF480031360C16AC9B9F1E74FF4007384
:1018F0000EE000BF4FF400530AE000BF022307E0F0
:1019000002F168044FF00073A14208BF4FF40013C6
:101910001360816A0022002980F82020D8D0BDE819
:1019200010400847002804BF012070472DE9F0410E
:1019300001684FF6F872CBF6FD724CF6CD430A44BF
:10194000CCF6CC43A2FB03236FF0030707EA930313
:101950000027C4F2020700F1040E00F11008C0E9EC
:101960000F739EE8045098E870010B6843F6F07717
:10197000BB431A4342EA0C0242EA0E0222432A43C4
:10198000324342EA08020A6000214FF48072816308
:101990000284BDE8F041084670470000F0B590F8B9
:1019A00020C0BCF1010F32D090F821C04FF0010EE1
:1019B000BCF1010F80F820E026D14FF0020C80F836
:1019C00021C04FF0000CC0F838C0D0E900C4C56A8F
:1019D000C66BDCF80070102C27F00107CCF8007003
:1019E000006C0EFA00F070600846CCF8043004BFBA
:1019F00010460A46CCF80800CCF80C20DCF80000B1
:101A000045B140F00E000DE0002180F820100220CA
:101A1000F0BD00BF20F00400CCF80000DCF80000AE
:101A200040F00A00CCF80000DCF8000040F00100B3
:101A3000CCF800000020F0BD2DE9F04F82B00E6818
:101A4000002E00F0038140F20C4C41F200424FF6B0
:101A5000FF7EC4F2010CC4F201020427002401231A
:101A6000C1F2100E4FF0000A4FF00009904208BF7B
:101A70000327009745E000BF012704F00C030F2265
:101A80009A402BEA020207FA03F34FEA9A051A4337
:101A900046F82520D1F804B040F20045C4F2010513
:101AA0005FEACB322A6854BF22EA080242EA0802FF
:101AB0002A606A685FEA8B3354BF22EA080242EA6E
:101AC00008026A605FEACB23AA6854BF22EA0802D0
:101AD00042EA08025FEA8B23AA60DCF800204FF09C
:101AE000010354BF22EA080242EA0802CCF80020AF
:101AF0000E680AF1010A36FA0AF204F1040400F051
:101B0000A58003FA0AF816EA080FF1D04E68764568
:101B100012DC122E56D8DFE806F0350B4549555534
:101B200055555555555555555555554D510000BFB1
:101B3000D1F80C9046E000BF4FF6FF72C1F22102CF
:101B400096420FDC0022C1F2110296421AD0002206
:101B5000C1F21202964215D00022C1F22102964231
:101B600010D02FE00022C1F2220296420AD00022B9
:101B7000C1F23102964205D00022C1F232029642F1
:101B800020D100BF8A684AB1012A14BFC0F814806E
:101B9000C0F810804FF0080914E000BF4FF00409AE
:101BA00010E000BFCA6802F108090BE04FF000091D
:101BB00008E000BFCA6802F1040903E0CA6802F144
:101BC0000C0900BF22460646BAF1080F24BF203A8E
:101BD000043637680F25954027EA050509FA02F211
:101BE0002A433260CA79D2067FF582AF41F21803E8
:101BF000C4F202031A6842F001021A601A6802F085
:101C000001020192019A40F20042C4F20102A2F5DF
:101C10007E762AF0030256F802B040F60002C4F2C3
:101C20000102904210D040F60042C4F201029042FC
:101C30003FF422AF41F20002C4F20102009F904241
:101C400008BF022719E700BF002716E702B0BDE86A
:101C5000F08F0000002A08BF0904016170470000EE
:101C600044F63000C2F200000068704740F2000005
:101C700044F63001C2F20000C2F2000100780A68A6
:101C8000104408607047000080B542F20000C4F2C2
:101C90000200016841F010010160032000F0C2F869
:101CA0000F2000F005F800F05BF8002080BD000078
:101CB000B0B586B041F21801C4F202010A680446C8
:101CC00042F400620A60096801A801F40061019110
:101CD0000199694600F094FA00F0C8FA4DF6836164
:101CE000C4F21B31A0FB01014FF0FF3000EB91412A
:101CF00040F2742042F60042C2F20000C4F2010237
:101D000040F2E7330025C0E90021C0E90253056134
:101D1000856100F09DFC054610B1284606B0B0BDB7
:101D200040F27420C2F2000000F00AFD05460028CF
:101D3000F3D1192000F036F80F2C0DD819202146C8
:101D40000022002500F042F840F20400C2F2000038
:101D50000460284606B0B0BD0125284606B0B0BDD7
:101D600082B041F21800C4F202000168022241F080
:101D700001010160016801F00101019101994168CF
:101D800041F080514160406800F080500090009820
:101D90000420C4F20100016862F31A61016002B01C
:101DA00070470000002848BF7047C1B200F01F0014
:101DB000012202FA00F04EF20012CEF2000242EAD4
:101DC000D10121F0030108607047000010B54EF604
:101DD0000C5CCEF2000CDCF80030C3F3022E8EF067
:101DE0000704042C28BF0424BEF103034FF0FF3E78
:101DF0000EFA04F438BF0023A14399400EFA03F30E
:101E00009A43114300F00F0200F160430901043AC4
:101E100003F564436244002848BF02F10C031970C3
:101E200010BD00004EF60C51CEF200010A684FF6CC
:101E3000FF031A4060F30A2242F0806040F0FD7018
:101E40000860704780B5012818D0022836D01028C5
:101E500032D141F20401C4F202010A6851F8040CC3
:101E6000C00129D5C2F383402DA3185CD2033DD411
:101E700040F60012C0F23D02504343E041F204003C
:101E8000C4F20200C16940F202320A40B2F5817F19
:101E900004BF4FF4004080BD01F44071B1F5407FB4
:101EA0001CD0B1F5007F07D1006A49F64041800798
:101EB00001EAE07080BD00BF002080BD00F0D6F9CF
:101EC00041F20401C4F2020109680222C1F3813126
:101ED00002EB4101B0FBF1F080BD00BF50F8040CF3
:101EE0004FF22441800301EAE07080BD0A6810A32C
:101EF000C2F340429A5C41F20023C0F27A03B3FB82
:101F0000F2F250430968490248BF80BD4AF6AB214E
:101F10004000CAF6AA21A0FB0101480880BD00BF0D
:101F200002030405060708090A0B0C0D0E0F10101A
:101F3000010200002DE9F04182B00446007841F230
:101F40001C06C007C4F202064AD0306810F0805860
:101F500008D1306840F080503060306800F0805028
:101F60000190019847F20007C4F200073868C005E5
:101F700012D4386840F480703860FFF771FE05466F
:101F80003868C00508D4FFF76BFE401B6428F7D9FA
:101F9000032002B0BDE8F081706810F4407012D0E8
:101FA000616801F4407188420DD0706840F240428F
:101FB000C4F24222012320F4407113600023C007C1
:101FC000136071602AD17068616820F44070084322
:101FD000B8F1000F706003D1306820F0805030609D
:101FE0002068810707D556F8181CA26821F44041E3
:101FF000114346F8181CC00604D4002002B0BDE806
:10200000F08100BF56F8180CE16820F48000084306
:1020100046F8180C002002B0BDE8F081FFF720FE62
:10202000054641F2883700BF70688007CBD4FFF7C0
:1020300017FE401BB8424FF00300F5D9EBE7000054
:102040002DE9F04381B0002800F0858042F20008BD
:10205000C4F202080446D8F800000D4600F007005C
:1020600088420CD2D8F8000020F007002843C8F8B6
:102070000000D8F8000000F00700A8426BD12068EB
:1020800041F204098107C4F2020917D5410705D5B9
:10209000D9F8001041F4E061C9F80010010705D536
:1020A000D9F8001041F46051C9F80010D9F80010B7
:1020B000A26821F0F0011143C9F80010C00741D116
:1020C000D8F8000000F00700A8420CD9D8F80000AA
:1020D00020F007002843C8F80000D8F8000000F0FE
:1020E0000700A84237D12068410707D5D9F800106A
:1020F000E26821F4E0611143C9F80010000708D537
:10210000D9F80000216920F4605040EAC100C9F804
:102110000000D9F8002002F00C00082841F200204D
:10212000C0F27A0050D145F66203C2F38341C0F693
:102130000003595CD2033BD440F60010C0F23D00CE
:10214000484341E0606802280AD001282AD159F8A2
:10215000041C890308D4012001B0BDE8F08300BF4E
:1021600059F8041C8901F6D5D9F8001021F00301B3
:102170000843C9F80000FFF773FD064641F28837AF
:10218000D9F80000616800F00C00B0EB810F97D027
:10219000FFF766FD801BB842F2D9032001B0BDE80D
:1021A000F08300BF59F8041C8907D4D5DCE700BFD1
:1021B000D9F8002045F64803C2F34042C0F60003B8
:1021C0009A5C4843B0FBF2F0D9F8001045F64A0299
:1021D000C1F30311C0F60002515C40F2080220FA7C
:1021E00001F140F20400C2F200000068C2F20002F5
:1021F0001160FFF75DFD002001B0BDE8F083000035
:102200000F22026041F20402C4F20202136803F0DA
:1022100003034360136803F0F0038360136803F45F
:10222000E063C36012684FF4E06303EAD202026124
:1022300042F20000C4F20200006800F007000860EB
:102240007047000040F2080041F20401C2F20000B1
:10225000C4F202010068096845F65A02C1F302217E
:10226000C0F60002515CC8407047000040F2080010
:1022700041F20401C2F20000C4F2020100680968E0
:1022800045F65A02C1F3C221C0F60002515CC840B3
:10229000704700002DE9F04182B0002868D0044664
:1022A000007841F20006C007C4F2020625D070682B
:1022B00000F00C0004281BD0706800F00C00082807
:1022C00002D17068C00313D46068002800F06881F0
:1022D000B0F5A02F00F07C81B0F5803F00F07C814C
:1022E000306820F480303060306820F4802076E15F
:1022F0003068800301D56068D0B32078800718D596
:10230000706810F00C0F07D0706800F00C000828FF
:102310006ED17068C0036BD43068800702D5206925
:10232000012825D13068616920F0F80040EAC10039
:102330003060207800071FD42078400732D4E56948
:1023400095B1706800F00C00082840F08F80012DD6
:102350000ED07068216A00F480328A4208D1616A26
:1023600000F47010884203D1002002B0BDE8F08173
:10237000012002B0BDE8F081A069002862D00020F1
:10238000C4F242200121C0F88014FFF769FC054621
:10239000706A800700F18C80FFF762FC401B022806
:1023A000F6D92AE1F06910F0805808D1F06940F0C0
:1023B0008050F061F06900F080500090009847F282
:1023C0000007C4F200073868C00529D4386840F413
:1023D00080703860FFF744FC054600BF3868C005D0
:1023E0001ED4FFF73DFC401B6428F7D905E100BF70
:1023F0002069002840F20000C4F2422000F08280F0
:1024000001210160FFF72CFC054600BF3068800702
:102410003FF588AFFFF724FC401B0228F6D9ECE01B
:10242000E068002800F08080052800F097800128EF
:1024300000F09880306A20F001003062306A20F0AD
:10244000040092E00020C4F242200021C0F8801471
:10245000FFF706FC054600BF706A80077FF56CAF8A
:10246000FFF7FEFB401B0228F6D9C6E00027C4F2A6
:10247000422700203866FFF7F3FB022D05460BD1FB
:102480003068800140F1BE80FFF7EAFB401B022864
:102490004FF00300F4D968E7306880017FF564AF3E
:1024A000FFF7DEFB401B02284FF00300F4D95CE786
:1024B00040F20800C2F20000006844F6D351C1F2B5
:1024C0006201A0FB0101480A019000BF00BF019812
:1024D000411E002801913FF42FAF00BF0198411E1B
:1024E000002801913FF428AF00BF0198411E002849
:1024F00001913FF421AF00BF0198411E00280191D6
:10250000E4D119E700210160FFF7AAFB054600BFEF
:10251000306880077FF50DAFFFF7A2FB401B022854
:102520004FF00300F4D920E7306A20F00100306258
:10253000306A20F004003062FFF792FB054641F25A
:10254000883700BF306A800720D5FFF789FB401B22
:10255000B8424FF00300F5D907E700BF306A40F0FA
:1025600004003062306A40F001003062FFF778FB0F
:10257000054641F2883700BF306A800706D4FFF76E
:102580006FFB401BB842F7D937E000BFB8F1000F2E
:102590007FF4D5AEF06920F08050F061CFE600BF47
:1025A000306820F480303060306820F48020306063
:1025B000FFF756FB054600BF306880037FF59DAEF0
:1025C000FFF74EFB401B64284FF00300F4D9CCE624
:1025D000306840F480203060306840F480303060F3
:1025E000FFF73EFB054600BF306880033FF585AE30
:1025F000FFF736FB401B6428F6D9032002B0BDE884
:10260000F08100BF206AB0F5803F05D17168A268F3
:1026100021F40031114371607168626A21F4741110
:1026200011430843706001203866FFF719FB044628
:10263000306880013FF598AEFFF712FB001B0228BF
:102640004FF00300F4D990E6704700007047000097
:10265000002804BF0120704710B5044690F83D00E3
:1026600028B9002084F83C00204600F067F80220DA
:1026700084F83D00206840F2FF730268C4F2000352
:1026800042F6004C9842C4F2010C15DCB0F1804FC8
:102690001AD040F20041C4F20001884214D098429E
:1026A00018DCB0F1804F1DD040F20041C4F20001AF
:1026B000884217D01AE000BF604505D040F60001FF
:1026C000C4F200018842EAD1A16822F070020A43F4
:1026D0009842E6DD604505D040F60001C4F20001F5
:1026E000884203D1216922F440720A43A36922F08F
:1026F0008001D4F804E0E268194360450160C262D9
:10270000C0F828E002D16169CCF8301001214161A4
:10271000002084F8461084F83E1084F83F1084F8B6
:10272000401084F8411084F8421084F8431084F873
:10273000441084F8451084F83D1010BD7047000027
:1027400090F83D1001291CBF01207047022180F83C
:102750003D10006840F2FF72C168C4F2000290426E
:1027600041F00101C16009DCB0F1804F12D040F2AC
:102770000041C4F2000188420CD012E042F6004150
:10278000C4F20101884205D040F60001C4F2000104
:10279000884206D1816801F00701062904BF0020A4
:1027A0007047016841F0010101600020704700009E
:1027B0007047000010B5016804460869800744BFEF
:1027C000C8685FEA807039D40869400744BFC868A8
:1027D0005FEA40703ED40869000744BFC8685FEAFA
:1027E000007045D40869C00644BFC8685FEAC0608D
:1027F0004AD40869C0071CBFC8685FEAC07051D1DD
:102800000869000644BFC8685FEA006052D40869DE
:10281000400644BFC8685FEA406053D40869800638
:1028200046BFC8685FEA806010BD6FF02002204696
:102830000A61BDE81040FFF709BF00BF6FF002005A
:102840000861012020778869800743D02046FFF780
:10285000AFFF45E06FF0040008610220207788692F
:1028600010F4407F40D02046FFF7A2FF42E000BFB7
:102870006FF00800086104202077C86980073DD008
:102880002046FFF795FF3FE06FF010000861082039
:102890002077C86910F4407F3AD02046FFF788FFC0
:1028A0003CE000BF6FF001000861204600F03EF8F8
:1028B0002168A5E76FF0800008612046FFF7C4FE9D
:1028C0002168A4E76FF040000861204600F038F866
:1028D0002168A3E7204600F025F8204600F024F800
:1028E0002168002020776FE7204600F01BF8204683
:1028F00000F01AF82168002020776CE7204600F0ED
:1029000011F8204600F010F821680020207769E7D0
:10291000204600F007F8204600F006F82168002065
:10292000207766E77047000070470000006842F6B5
:102930000041C4F20101884218BF7047FFF796B901
:1029400070470000002804BF0120704710B50446FE
:1029500090F83D0028B9002084F83C00204600F0A3
:1029600061F8242084F83D002068D4E90212C3688D
:1029700023F40053C360036923F440531A430261F4
:10298000D4E904231143C268194341F20C639A430A
:102990001143C1604169A26921F44071114343F6BA
:1029A0000002C4F201029042416103D0FFF74AFCE9
:1029B00002E000BFFFF75AFC62681921484391000A
:1029C000B0FBF1F048F21F51C5F2EB11A0FB01235F
:1029D0005A094FF69C73C0F6FF7302FB03003223C3
:1029E00003EB0010A0FB0101F02303EA5113206860
:1029F00003EB0212C1F3431111448160016921F418
:102A000090410161416921F02A014161C16841F4AD
:102A10000051C16000202021206484F83D1084F81A
:102A20003E1010BD70B586B040F60004C4F201043B
:102A3000006804F5405100268842049602D006B092
:102A400070BD00BF41F21800C4F20200016802AD7F
:102A500041F480410160016801F4804101910199D4
:102A6000016841F0040101600068294600F004009B
:102A7000019001984FF4007002900220039003200F
:102A800005902046FEF7D8FF4FF48060CDE902069E
:102A9000204629460496FEF7CFFF06B070BD000021
:102AA0002DE9F041044690F83D0020280ED10D4656
:102AB00000294FF0010000F08E801646002A08BF62
:102AC000BDE8F08194F83C00012803D10220BDE864
:102AD000F08100BF012084F83C0000202064212008
:102AE000984684F83D00FFF7BBF8A684E684A16809
:102AF0000646B1F5805F03D12069002800F0A08070
:102B00002F460025002084F83C00E08CE0B118F14D
:102B100001001BD0B8F1000F60D120680BE000BFAE
:102B200035F8021B00276FF35F214160E18C01390A
:102B3000E184E18C51B3016809066DD5002FEFD017
:102B400017F8011BF1E700BF20681FE0206802E0D2
:102B50000168090609D40168090606D40168090656
:102B60005CBF01685FEA0161F2D51FB117F8011B74
:102B700005E000BF35F8021B00276FF35F214160BD
:102B8000E18C0139E184E18C0029E4D10168490636
:102B90001DD4B8F1000F3FD018F101010ED101682A
:102BA000490614D4016849065CBF01685FEA4161C7
:102BB0000DD401684906F2D509E000BFFFF750F8CF
:102BC000811B2068414527D800684006F6D52020A3
:102BD00084F83D000020BDE8F08100BF206800BF00
:102BE0000168090606D4FFF73BF8811B20684145C0
:102BF000F6D911E017B117F8011B04E035F8021BF4
:102C000000276FF35F214160E18C0139E184E18CA1
:102C10000029E5D1BAE700BFC16821F4D071C160D5
:102C2000416921F001014161202084F83D0084F8D0
:102C30003E00002084F83C000320BDE8F08100BF86
:102C400000275FE7FEE70000FEE70000FEE7000068
:102C5000EFF30980BFF36F8F0D4B1A6820E9F00F77
:102C600010602DE908404FF0BF0080F3118800F09C
:102C700015FE4FF0000080F31188BDE80840196888
:102C80000868B0E8F00F80F30988BFF36F8F7047D2
:102C90000003002000000000000000000000000011
:102CA000074B19680868B0E8F00F80F30988BFF394
:102CB0006F8F4FF0000080F311884EF00D0E7047BB
:102CC0000003002080B54FF0BF0080F31188BFF3F0
:102CD0006F8FBFF34F8F01F043FB30B14EF60450BE
:102CE000CEF200004FF080510160002080F3118887
:102CF00080BD00007047000040F27420C2F2000066
:102D0000FFF758BDFEE7000096B0FEF7BDFF0024B8
:102D10000120CDE91144CDE90F440C9010904FF4FF
:102D2000E0104FF48031022515900CA80694CDE9EF
:102D30000444CDE90D14CDE91351FFF7ABFA28B1E6
:102D4000EFF3108072B600BFFEE700BF0F20CDE9A1
:102D500007054FF48060CDE90A0407A80221099411
:102D6000FFF76EF920B1EFF3108072B6FEE700BFF7
:102D70004FF400400226059003A80396FFF7DAF807
:102D800020B1EFF3108072B6FEE700BF41F21804E5
:102D9000C4F20204206841F2000840F010002060F4
:102DA0002068C4F2010800F010000C900C98206814
:102DB0004FF4005140F0200020602068002200F015
:102DC00020000C900C9820684FF4005740F004004D
:102DD00020602068002500F004000C900C9840460C
:102DE000FEF738FF0C9701270CA94046CDE90D7579
:102DF0000F96FEF721FE54F8040C002140F001006C
:102E000044F8040C54F8040C002200F001000C906B
:102E10000C980B20FEF7DAFF0B20FEF7C3FF40F201
:102E2000B816C2F2000608F5A051304640F8481F17
:102E30004FF480714FF46022C0E9015104210773FF
:102E40000575C2610161FEF7D1F928B1EFF3108079
:102E500072B600BFFEE700BFCDE90C570E9506F134
:102E600048050CA92846FEF7E3F828B1EFF31080D7
:102E700072B600BFFEE700BF0220CDE90C000CA92E
:102E80002846FEF7D5F828B1EFF3108072B600BFE0
:102E9000FEE700BF032004240D900CA928460C94E3
:102EA000FEF7C6F820B1EFF3108072B6FEE700BF60
:102EB0000620CDE90C040CA92846FEF7B9F828B184
:102EC000EFF3108072B600BFFEE700BFA8F52C41FB
:102ED000304640F8201F102100244FF460224FF4A8
:102EE0008013C0E90114C0E90342C0E905348483BA
:102EF000FEF764FB20B1EFF3108072B6FEE700BF6F
:102F000040F2BC2008F52051C2F200000C234FF41F
:102F1000165280E81600C0E90344C0E90534C461D4
:102F2000FFF710FD20B1EFF3108072B6FEE700BF8F
:102F300040F27004C2F2000404F124012846042285
:102F4000FEF750FA2846FDF7E9FF00200621C4E904
:102F50000D00C4E90F0006F120006164FEF7E6FBF6
:102F600001200021032200F095FDA06020B1002186
:102F70000022002300F0D0FD0120002103220125C2
:102F800000F088FDE06020B100210022002300F065
:102F9000C3FD43F6F100C0F600000CA1802201231E
:102FA0000095019400F0E6FF606143F27D50271D1B
:102FB000C0F6000008A1802201230095019700F0CF
:102FC000D9FFA06100F02CFCFEE700BF55617274D0
:102FD000205441534B00000043616E205441534B39
:102FE000000000002DE9F04140F2D80640F2003721
:102FF000C2F20006C2F200070D46D6F81480396806
:103000000446081D00F0A8FA10B1601C0BD023E0A4
:1030100038680121C06A326801FA00F022EA000033
:103020003060601C18D1BDB1386839683A683B68B7
:10303000D7F800C056F84C5F7468CCF81460A768E5
:103040008460CF60A068111D4160181DA060681CDD
:103050003060BDE8F08100BF386814EB08044460BC
:1030600006D3F06939680431BDE8F04100F0D6BA02
:10307000B0693968043100F0D1FAF06A844238BF8F
:10308000F462BDE8F081000040F2D80540F2043659
:103090004EF60458C2F20005C2F20006CEF2000855
:1030A0004FF0805715E000BF00F0EAFA686CC46882
:1030B000201D00F051FAE8680138E860A86801387E
:1030C000A86000F0EDFA206B00F0F8FA204600F05E
:1030D000F5FAA8680028E7D130680228F9D3C8F8C3
:1030E0000070BFF34F8FBFF36F8FF2E706480068A1
:1030F000006880F3088862B661B6BFF34F8FBFF3F4
:103100006F8F00DF00BF000008ED00E081B00020FD
:1031100000904FF0BF0080F31188BFF36F8FBFF3B3
:103120004F8F00BF009830B9009820B9009810B9AF
:1031300000980028F6D001B07047000084B040F23B
:103140004C19C2F20009E846D9F8080006681EB119
:10315000C068D0F800A001E04FF0000A00F096FB34
:1031600001F0F8F8D9F81010834688421FD3002EDA
:10317000C9F810B060D0DA455ED801F011FAD9F87C
:103180000800C068C668371D384600F0E5F996F8B3
:103190002800410738D400F0FE0086F8280071E0CE
:1031A00000F0FE0086F82800316A30468847D9F8DA
:1031B00008000168B1B3C068C6680568371D3846A5
:1031C00000F0CAF996F828004107E9D5B06944191A
:1031D00074604019366108D2316A30468847B06958
:1031E0002118044474603661F6D3D9F80C003946CE
:1031F00000F014FAD8E700BFABEB0A0181423BD3E1
:10320000316A30468847A246B069366100EB0A044D
:103210005C457460F0D9D34509F108002ED25445BD
:10322000EED22BE0D9F80C10C9F810B0C9E90210A1
:1032300001F0B6F932E000BF16B1002206E000BF8F
:10324000D9F80C000068B0FA80F04209D9F8000003
:10325000AAEB0B0100F044FA01F0A2F9F0B94EF626
:103260000450CEF200004FF080510160BFF34F8F49
:10327000BFF36F8F12E000BF09F10C000068394600
:1032800000F0CCF9316A3046884707E001F0FE00D3
:103290008BF82800DBF8201058468847D9F8000042
:1032A0004146002200F0FAFC00283FF44DAF0098A0
:1032B000B0F1FF3F06DCDDE901200399904700985B
:1032C0000028EBD4DDF808B0DBF8140018B10BF1DE
:1032D000040000F041F901F03DF8D9F810108246E1
:1032E000884208D330E000BF00F0FE0087F82800D5
:1032F000396A38468847D9F80800016801B3C068C0
:10330000C76805683C1D204600F026F997F828009C
:103310004107E9D5B86946197E6040193F6108D276
:10332000396A38468847B869311806447E603F617B
:10333000F6D3D9F80C00214600F070F9D8E700BFA9
:10334000D9F80C10C9E902100098C9F810A001388A
:103350000828A3D8DFE800F006061E266806061E29
:10336000260000BF019ADBF818009BF82810861889
:103370005F4641F0010347F8046F56458BF828304B
:10338000CBF810B024D9924509F1080326D2964211
:103390002AD223E09BF8280000F0FE008BF82800DA
:1033A0007CE700BF9BF82800CBF810B040F001018B
:1033B00001988BF8281000EB0A02594641F8042FB7
:1033C0005245CBF8180037D909F1080039E000BFA1
:1033D000AAEB0202824207D209F10C0318683946AF
:1033E00000F01CF95AE700BF4A077FF54FAF01997B
:1033F00001440AE0AAEB0101814227D3DBF8201047
:1034000058468847DBF8180021460C185445CBF87D
:103410000440CBF810B0EDD98A4509F1080017D265
:103420008C42EBD214E000BF9BF828008107B3D494
:10343000584600F043F931E700283FF42FAF09F177
:103440000C00006800F0EAF828E700BF09F10C0062
:103450000068394600F0E2F81CE70000F0B581B0E2
:10346000044600F00DF994F94560012E0FDB04F1DC
:10347000240500BF286850B1284601F027F800282D
:1034800018BF00F061F9F0B2013E0128F2D8FF2622
:1034900084F8456000F004F900F0F2F894F9447003
:1034A000012F0EDB04F11005286850B1284601F009
:1034B0000DF8002818BF00F047F9F8B2013F0128C5
:1034C000F2D884F8446001B0BDE8F04000F0E8B8FC
:1034D00010B520F0070101F10804844298BF0024D0
:1034E000410708BF044600F0D1F940F28810C2F24B
:1034F0000000016881B1CCB143681A1944F2F73475
:10350000A2424FF0000403D89A4284BFCC18426014
:1035100001F046F8204610BD40F23041C2F20001F1
:10352000073121F007010160002CE5D1002401F0F2
:1035300037F8204610BD0000034643F20D10C0F6D8
:1035400000004FF0807C21F0010103E90310A3F19A
:10355000400043F8202C7047D0E9013201699A609D
:10356000D1F804C082688445536008BF4A600022D5
:1035700002610868013808600868704784B000F08C
:10358000E9FE40F2700A40F2B81BC2F2000AC2F231
:10359000000B0DF10C090AF11C050FF258080BF194
:1035A00020070AF134060AF11004039004E000BF7A
:1035B0004846322100F06CFEDAF80C004FF0FF3183
:1035C00000F012FC0028F3D0DBE9020101F0B6FCA8
:1035D00002F03AF80B460090284606214246019335
:1035E000FCF702FE384631462A462346FDF786FFA1
:1035F000DEE700BF252E3266000000004FF0FF31ED
:10360000024642F8081F00214260C0E9032201601F
:1036100070470000002101617047000010B5D1F82B
:1036200000E01EF1010213D000F108046268136883
:10363000734511D853681C68744511D85A681468CA
:1036400074450FD854682368A4467345EED90BE03F
:103650000269D2F804C007E09446224604E000BFA5
:103660009C4601E094461A46C1F804C0CCF8081004
:103670008A605160086101680131016010BD00007D
:103680004FF0BF0080F31188BFF36F8FBFF34F8FF0
:1036900040F20C00C2F20000016801310160704785
:1036A00040F20C00C2F2000001680139016018BF4D
:1036B0007047002080F311887047000070470000B9
:1036C0004EF21000CEF200000021016081604FF642
:1036D0007F41C0F20A01416007210160704700008C
:1036E00070B515460E460446FFF7CAFF94F844002D
:1036F000FF2804BF002084F8440094F84500FF2808
:1037000004BF002084F84500FFF7CAFFA06B28B172
:103710002046BDE87040FFF7A1BE00BF04F12400C1
:1037200031462A4600F028F82046BDE87040FFF7F1
:1037300095BE000040F2D801C2F200014A6B02605F
:10374000496941607047000040F2D800C2F20000B1
:10375000012141627047000010B50C4640F2003173
:10376000C2F2000109681831FFF758FF2046012115
:10377000BDE81040FFF736BCF0B581B040F200352F
:10378000C2F2000543682F680C46FB619F682E68F3
:1037900037622F689E6807F1180777602F6807F176
:1037A00018079F602B689862036803F101010160AC
:1037B00042B14FF0FF30114601B0BDE8F040FFF7D5
:1037C00011BC00BF40F2D806C2F200067769286833
:1037D0000430FFF7C1FE58B12868E419446014D3DF
:1037E000F0692968043101B0BDE8F040FFF716BF69
:1037F00028680121C06A326801FA00F022EA00005C
:1038000030602868E4194460EAD2B069296804315C
:10381000FFF704FFF06A844238BFF46201B0F0BDE4
:10382000B0B582B040F2D8050020C2F20005009089
:1038300043F2890005F12804C0F6000011A180229E
:103840000023019400F096FB012814D100F040FF02
:10385000012810D14FF0BF0080F31188BFF36F8FA4
:10386000BFF34F8F4FF0FF30E86201202861002046
:10387000686100F0DFF845F67400C0F600000068EB
:1038800002B0B0BD49444C450000000040F2D800F1
:10389000C2F20000016A01310162704740F2D800B3
:1038A000C2F20000016A00291EBF01214162704777
:1038B000002141620068B0FA80F0C0B2C0F11F0080
:1038C00040F2043100EB8000C2F2000101EB800104
:1038D00051F8040F40680A1D9042086001D1406809
:1038E0000860C06840F20031C2F200010860704711
:1038F00086B000F02FFD40F27000C2F2000040F2EE
:10390000BC2B824600F14C06C2F2000B02AD00BF98
:10391000DAF808004FF0FF3100F066FA0028F7D01F
:1039200040F2B8190027C2F2000939E00A20ADF8C8
:10393000140046F26540C0F62050049046F27250E2
:10394000C7F27330039046F64370C7F26D000290E1
:1039500020464146013701F0F1FA01F075FE0C46B0
:103960000090304619212EA23B460194FCF73CFC06
:103970003046FCF71CFD82B2584631464FF0FF330B
:10398000FFF78EF82846FCF712FD82B2584629460A
:103990004FF0FF33FFF784F8042F09F10809B7D07F
:1039A0000AEB8700406A01F0A5FE01F04DFE0023FE
:1039B0000022CCF2A00301F0F3FA00230022C4F2AB
:1039C000140301F055FC00224FF07D5301F050FC30
:1039D0000446884600220023C9E9004801F07BFE26
:1039E0000028A3D0204641460022002301F06CFEAF
:1039F00070B940F62050C0F20A00049046F26E40C2
:103A0000C6F26540039047F64500C6F270109EE787
:103A100000208DF80A0040F60D20ADF8080097E769
:103A200076616C202564203D20252E326620636D52
:103A30002000000010B582B04EF62050CEF20000FB
:103A4000016841F47F010160016841F07F4101603C
:103A5000FFF736FE40F20C00C2F2000000240460C2
:103A6000FFF744FBFFF71AFF01944FF0BF0080F30C
:103A70001188BFF36F8FBFF34F8F00BF019830B92C
:103A8000019820B9019810B901980028F6D00020BB
:103A900002B010BD2DE9F041D0B307460C46A0FBA3
:103AA0000101A9BB04FB07F010F1510F30D85030D1
:103AB0009046FFF70DFD4FF0000630B30546002C91
:103AC00018BF50302860C5E90F74FFF7D9FD28688A
:103AD000D5E90F12AE6302FB0103013901FB0201BC
:103AE000C5E90103FF20E96085F8440085F8450039
:103AF00005F11000FFF782FD05F12400FFF77EFDC0
:103B0000FFF7CEFD2E4685F84C803046BDE8F081AB
:103B10000020BDE8F08100002DE9F04F85B0994606
:103B2000019104460492FFF7ABFDA06BB9F1020FBF
:103B30005AD0E16B884257D304F11007012002AE3E
:103B40004FF0000B04AD0CE02046FFF787FC00F0BF
:103B500027FDFFF795FDA06BE16B88424FF0000059
:103B600042D30499002961D0C00702D03046FFF744
:103B7000E1FDFFF795FDFFF789FEFFF781FD94F862
:103B80004400FF2808BF84F844B094F84500FF289B
:103B900008BF84F845B0FFF783FD3046294600F0A2
:103BA000B3F9002848D1FFF76BFDD4F838A0D4F85A
:103BB0003C80FFF775FDC245C6D104993846FFF732
:103BC000CBFD2046FFF74AFC00F0EAFC0028C0D1FC
:103BD0004EF60450CEF200004FF080510160BFF36A
:103BE0004F8FBFF36F8FB4E7A56B226CDAB3B9F1D7
:103BF000000F2BD0E0680199FCF7F8FBE168206C1E
:103C00002268091A9142E16003D2A1684042084447
:103C1000E060A9F10200B0FA80F040092946002DC9
:103C200018BF012108402D1A1DE000BFFFF738FD25
:103C3000002005B0BDE8F08F2046FFF70FFC00F034
:103C4000AFFC002005B0BDE8F08F00BF60680199AF
:103C5000FCF7CCFB216CD4E901020844904260607F
:103C600001D320686060681CA06354F8240F70B111
:103C7000204600F02BFC50B14EF60450CEF200006E
:103C80004FF080510160BFF34F8FBFF36F8FFFF78D
:103C900007FD012005B0BDE8F08F00002DE9F04FD1
:103CA00083B0894604460292FFF7EAFCD4F838A0B4
:103CB000BAF1000F28D0226C52B1D4E90230811839
:103CC000E160994224BF2168E1604846FCF78EFB21
:103CD000AAF10100A06354F8100F70B1204600F063
:103CE000F5FB50B14EF60450CEF200004FF080517B
:103CF0000160BFF34F8FBFF36F8F0124FFF7D0FC3C
:103D0000204603B0BDE8F08F04F1240801206F467F
:103D10004FF0000B02AE2CE0FFF7C2FCFFF7B6FD40
:103D2000FFF7AEFC94F84400FF2808BF84F844B0C5
:103D300094F84500FF2808BF84F845B0FFF7B0FCB1
:103D40003846314600F0E0F8E0B12046FFF786FB48
:103D500000F026FCFFF794FCA56BFFF7A1FC002DFB
:103D60003CD0FFF78DFCD4F838A00020BAF1000F4A
:103D7000A1D1029951B3C007CED03846FFF7DAFC83
:103D8000CAE700BFFFF77CFCA56BFFF789FC2DB1EC
:103D90002046FFF763FB00F003FCE2E70299404690
:103DA000FFF7DAFC2046FFF759FB00F0F9FB00288B
:103DB000D7D14EF60450CEF200004FF08051016092
:103DC000BFF34F8FBFF36F8FCBE700BF0024FFF728
:103DD00067FC204603B0BDE8F08F00BF00242046FA
:103DE00003B0BDE8F08F00002DE9F04F83B004462A
:103DF0000291FFF745FCA16BD1B1481EA06354F8B6
:103E0000100F70B1204600F061FB50B14EF6045027
:103E1000CEF200004FF080510160BFF34F8FBFF32F
:103E20006F8F0124FFF73CFC204603B0BDE8F08F04
:103E30004EF6045904F1240801206E464FF0000BA1
:103E400002AFCEF200094FF0805A29E0FFF728FCBC
:103E5000FFF71CFDFFF714FC94F84400FF2808BF8F
:103E600084F844B094F84500FF2808BF84F845B0B2
:103E7000FFF716FC3046394600F046F8C0B1204640
:103E8000FFF7ECFA00F08CFBFFF7FAFBA56BFFF7EE
:103E900007FC9DB3FFF7F4FBA16B00200029ACD118
:103EA000029919B3C007D1D03046FFF743FCCDE7E4
:103EB000FFF7E6FBA56BFFF7F3FB2DB12046FFF7FD
:103EC000CDFA00F06DFBE5E702994046FFF744FCB0
:103ED0002046FFF7C3FA00F063FB0028DAD1C9F8E7
:103EE00000A0BFF34F8FBFF36F8FD3E70024FFF71E
:103EF000D7FB204603B0BDE8F08F00BF002420466A
:103F000003B0BDE8F08F0000B0B50C460546FFF7E2
:103F1000B7FB40F2D80CC2F2000CDCF81420216888
:103F20004B1C21D0D5E9000EDCF83430834201D09F
:103F3000724511D2A2EB0E0291420DD9881A20606F
:103F4000DCF8340000242860DCF814006860FFF717
:103F5000A7FB2046B0BD00BF002020600124FFF772
:103F60009FFB2046B0BD00BF0024FFF799FB204611
:103F7000B0BD00002DE9F04F81B097008246384671
:103F8000994616468B46FFF7A3FA002800F0D48026
:103F900005465420FFF79CFA002800F0D380DDF896
:103FA000288054210446FCF76EFA28463946A5229B
:103FB0002563FCF760FA206BBBF1000F00EB860075
:103FC000A0F1040020F0070576D09BF8000084F8EB
:103FD00034009BF8000000286BD09BF8010084F8A7
:103FE00035009BF80100002863D09BF8020084F89C
:103FF00036009BF8020000285BD09BF8030084F891
:1040000037009BF80300002853D09BF8040084F885
:1040100038009BF8040000284BD09BF8050084F87A
:1040200039009BF80500002843D09BF8060084F86F
:104030003A009BF80600E0B39BF8070084F83B00C9
:104040009BF80700A8B39BF8080084F83C009BF895
:10405000080070B39BF8090084F83D009BF8090044
:1040600038B39BF80A0084F83E009BF80A0000B3BE
:104070009BF80B0084F83F009BF80B00C8B19BF83D
:104080000C0084F840009BF80C0090B19BF80D00E8
:1040900084F841009BF80D0058B19BF80E0084F89D
:1040A00042009BF80E0000281CBF9BF80F0084F80C
:1040B0004300002084F8430004F1040B5846B8F193
:1040C0000E0F28BF4FF00E08C4F82C80FFF7A2FA9D
:1040D00004F11800FFF79EFA88F00F00A06128464F
:1040E00051464A4624616462FFF726FA0B99206024
:1040F000002918BF0C60FFF7C3FA40F2D805C2F2DE
:104100000005E86840F200390130E860C2F20009B9
:10411000D9F8000040F20436C2F20006E0B1286986
:10412000002874D1D9F80000E16AC06A884298BFBB
:10413000C9F800406BE000BF4FF0FF37384601B0D0
:10414000BDE8F08F2846FFF7B9FA4FF0FF37384641
:1041500001B0BDE8F08F00BFC9F80040E868012851
:1041600055D13046FFF74AFA06F11400FFF746FA38
:1041700006F12800FFF742FA06F13C00FFF73EFA8D
:1041800006F15000FFF73AFA06F16400FFF736FA3D
:1041900006F17800FFF732FA06F18C00FFF72EFAED
:1041A00006F1A000FFF72AFA06F1B400FFF726FA9D
:1041B00006F1C800FFF722FA06F1DC00FFF71EFA4D
:1041C00006F1F000FFF71AFA06F58270FFF716FA0B
:1041D00006F58C70FFF712FA40F29018C2F2000850
:1041E0004046FFF70BFA08F114073846FFF706FAC6
:1041F00005F16000FFF702FA05F13800FFF7FEF95C
:1042000005F14C00FFF7FAF9C5F81880EF6128684E
:1042100069680127013169606164E16A07FA01F2A6
:104220001043286001EB810006EB80014A68616160
:104230009368A260E3609368C2F808B0C3F804B062
:1042400056F82010013146F82010FFF729FA2869A6
:1042500000283FF473AFD9F80000E16AC06A8842D1
:1042600010D24EF60450CEF200004FF080510160A3
:10427000BFF34F8F0127BFF36F8F384601B0BDE802
:10428000F08F00BF0127384601B0BDE8F08F000075
:10429000F0B581B040F2D805C2F200052A6A0132B9
:1042A0002A626A69036819449A42016006D29942F7
:1042B0004FF0000407D291420CD804E0994209D390
:1042C000914207D8002400F06BF9A0B3204601B05A
:1042D000F0BD00BF40F20034C2F200046E692068F5
:1042E0008F1A0430FFF738F950B12068F61946608C
:1042F00013D3E86921680431FFF790F916E000BF95
:1043000020680121C06A2A6801FA00F022EA000050
:1043100028602068F6194660EBD2A869216804314C
:10432000FFF77CF9E86A864238BFEE62012400F0AC
:1043300037F90028CAD14EF60450CEF200004FF0F3
:1043400080510160BFF34F8FBFF36F8F204601B0E4
:10435000F0BD000040F2D800C2F200004069704792
:104360002DE9F04F40F2D80BC2F2000BDBF8200031
:1043700040B1DBF830000130CBF830000020BDE860
:10438000F08F00BFDBF8140010F10109CBF8149096
:104390001AD3DBF81800DBF81C30CBF81830CBF858
:1043A0001C00DBF834000130CBF83400DBF81800D7
:1043B000006828B1DBF81800C068006802E000BFA0
:1043C0004FF0FF30CBF82C00DBF82C0040F2003C23
:1043D00040F2043A8145C2F2000CC2F2000A01D256
:1043E000002061E0DBF818004FF0000E00680028A4
:1043F00052D04FF00108002023E000BFE96ADBF84B
:10440000002008FA01F31A43CBF8002001EB8102E7
:104410000AEB82035C686B61A768AC60EF60A76819
:10442000A6607E605AF8223001334AF82230DCF868
:104430000020D26ADBF81830914288BF0120196849
:1044400071B3DBF81840E468E5682E4656F8047F3F
:10445000B94527D3D5E902246F6994607B68EC687D
:10446000B342626008BF7C603A68013A3A60AF6A62
:10447000002FC3D0D5E9072305F1180193607B68AD
:104480002C6A8B42626008BF7C60C5F828E03968FE
:1044900001393960B2E700BF4FF0FF37002001E07B
:1044A0004FF0FF37CBF82C70DCF80010C96A01EB35
:1044B00081015AF82110012988BF0120DBF824105E
:1044C000002918BF0120BDE8F08F000070B5C0685A
:1044D000C068D0E90723816A9360036AD1F804C0F9
:1044E00000F1180E5A600022F44508BF4B6082624A
:1044F0000A6840F2D80C013A0A60C2F2000CDCF8FB
:10450000201089B1614651F8602F4B6801329C68D8
:10451000C36104629C68C3F808E0C4F804E08162E7
:104520000A60C36A2EE000BFD0E9022143699160AE
:104530005C68C16800F1040E74454A6008BF5960A8
:10454000196801391960C36A0121DCF8002099401B
:10455000114340F20432CCF8001003EB8301C2F2A5
:10456000000202EB810465684461AE688560C66044
:10457000AE68C5F808E0C6F804E052F82100013042
:1045800042F8210040F20030C2F200000068C06A28
:10459000834292BF00200120CCF8240070BD0000AF
:1045A0002DE9F04381B0FFF76BF840F2D804C2F276
:1045B0000004206A01382062206A38B10024FFF725
:1045C0006FF8204601B0BDE8F08300BFE068002826
:1045D000F4D0206E002858D040F2043940F2003E5A
:1045E0004FF0000C4FF00108C2F20009C2F2000EB9
:1045F000E06EC068D0E90775836ABD605968056AD6
:1046000000F11806B1426F6008BF5D60C0F828C0B5
:10461000196801391960D0E9021645698E606F6822
:10462000C668031D9F42716008BF6E60296801392A
:104630002960C16A256808FA01F63543256001EB57
:10464000810509EB850677684661BA688760C260B4
:10465000BA68BB60536059F82500013049F825005D
:10466000DEF80000C06A814228BFC4F82480206EB2
:104670000028BDD1A069006820B1A069C0680068A9
:1046800002E000BF4FF0FF30E062256B4DB1012624
:10469000FFF766FE002818BF6662013DF8D10020D2
:1046A0002063606A00283FF489AF4EF60450CEF2D2
:1046B00000004FF080510160BFF34F8F0124BFF322
:1046C0006F8FFEF7EDFF204601B0BDE8F0830000DC
:1046D00070B582B0FEF7D4FF40F24C16C2F200066D
:1046E000306898B1FEF7DCFF306830B302200090EC
:1046F00043F23D100436C0F6000011A14FF4807261
:1047000000230196FFF736FC02B070BD06F11404D9
:104710002046FEF773FF06F128052846FEF76EFFD8
:104720000A2010210022C6E90245FFF7B3F93060E4
:10473000FEF7B6FF30680028D8D1002002B070BD67
:10474000546D7220537663005FEA400C08BF91F00D
:10475000000F4FEA8C234FEAC12243EA51514FEA3E
:104760001C5018BF00F5F0404FEA300018BF41F070
:1047700000415FEA6C5C00F02980BCF1FF3F08BF9C
:1047800040F080407047130C06BF12044FF0100C2D
:104790004FF0000C130E04BF12020CF1080C130FA3
:1047A00004BF12010CF1040C930F04BF92000CF132
:1047B000020CD30F04BF52000CF1010C11464FF054
:1047C0000002A0F11F00A0EB0C00704711F0004F99
:1047D00008BF704731F000413FF4D5AF0B0C06BF66
:1047E00009044FF0100C4FF0000C0B0E04BF09022F
:1047F0000CF1080C0B0F04BF09010CF1040C8B0F1A
:1048000004BF89000CF1020CCB0F04BF49000CF16E
:10481000010CCCF1200322FA03F341EA030102FA6E
:104820000CF2A0EB0C0000F10100704723F07F4771
:1048300020F07F4C80EA030000F00040ACEB07035F
:1048400003F57C5303F1FF032DE9804909B44FEAD6
:10485000144324EA03484FEA154B25EA0B4E0FF2A6
:10486000042606EB13273E7803FB0667C7F500070F
:1048700007FB06F64FEAD64606F102064FEA543722
:1048800007FB066CCCF1005C4FEA1C472CEA074C96
:104890000CFB06F507FB06F404EB15464FEA9616EB
:1048A00049085FEA320234BF00204FF000404FEA6F
:1048B000D13706FB07FC4FEA1C4C0CFB0BF7D21B55
:1048C00003FB0CF761EB07010CFB0EF7B0EB0740A5
:1048D00072EB17420CFB08F734BFA2EB0742B2EBB6
:1048E000074261EB17414FEA0C444FEA910706FB80
:1048F00007FC4FEA1C4C0CFB0BF7B0EBC74072EB0C
:10490000573203FB0CF734BFA2EBC742B2EBC742EE
:1049100061EB57310CFB0EF7B0EBC70072EB57722F
:104920000CFB08F734BFA2EBC702B2EBC70261EB86
:1049300057714FEA816141EA92114FEA826242EA7D
:1049400090124FEA806004EBCC04039F4FEAD1370A
:1049500006FB07FC4FEA1C4C0CFB0BF7D21B03FBBE
:104960000CF761EB07010CFB0EF7B0EB074072EBA5
:1049700017420CFB08F734BFA2EB0742B2EB074229
:1049800061EB17414FEA8C5504EB9C244FEA9107E9
:1049900006FB07FC4FEA1C4C0CFB0BF7B0EBC740C7
:1049A00072EB573203FB0CF734BFA2EBC742B2EBFA
:1049B000C74261EB57310CFB0EF7B0EBC70072EB4F
:1049C00057720CFB08F734BFA2EBC702B2EBC70269
:1049D00061EB57714FEA816141EA92114FEA8262BD
:1049E00042EA90124FEA806015EB4C2544F1000436
:1049F0004FEAD13706FB07FC4FEA1C4C0CFB0BF7C8
:104A0000D21B03FB0CF761EB07010CFB0EF7B0EBBD
:104A1000074072EB17420CFB08F734BFA2EB0742CA
:104A2000B2EB074261EB17414FEA813141EA924113
:104A30004FEA823242EA90424FEA80304FEA0C76E7
:104A400015EB1C1544F1000448EA03434EEA0B48F9
:104A50004FF0000EB2EB080C71EB030724BF624667
:104A600039464EEB0E0E4FF0000B001852414941F3
:104A70004BEB0B0BB2EB080C71EB03077BF1000B5C
:104A800024BF624639464EEB0E0E4FF0000B001865
:104A9000524149414BEB0B0BB2EB080C71EB030796
:104AA0007BF1000B24BF624639464EEB0E0E51EAF5
:104AB000020718BF46F0010616EB0E7655F100020C
:104AC00054F1000103D5BDE88901BDE80088BDE8C7
:104AD0008901BDE80048B619524141EB0101A3F13B
:104AE0000103704780807F7E7D7C7B7A7978777642
:104AF00076757473727171706F6E6E6D6C6C6B6ABB
:104B00006A69686867666665646463636261616058
:104B1000605F5F5E5E5D5D5C5C5B5B5A5A595958D5
:104B2000585757565655555554545353525252513F
:104B3000515050504F4F4F4E4E4D4D4D4C4C4C4B95
:104B40004B4B4A4A4A4949494848484747474746DC
:104B50004646454545444444444343434342424218
:104B6000424141419C46002B30D477002BD04FEA84
:104B700037071CB503B44FF010004FF01001BAF125
:104B8000000F06D0BCF1000FDCBF40F0080040F081
:104B900008014FF000000FBCBDE810400BF1010B05
:104BA000BBF1010F08BF5FEA170722BF12F1010234
:104BB00011F101014FF0004143F1000300F000400A
:104BC00043EA00007047F9D35708D0E746EA0646A3
:104BD0004FEA164613F1400F1FDD13F1200FDFBF20
:104BE00016430A46002120335B42BED0C3F12007A2
:104BF00046EA06464FEA164602FA07F746EA07066D
:104C000022FA03F2C3F1200701FA07F742EA07028A
:104C100021FA03F14FF00003A7E746EA020646EA4D
:104C200006464FEA164646EA0106BCBF46EA064675
:104C3000360C4FF000034FF000024FF0000194E7F4
:104C40002DE9804C70B49A46934691E8380007C825
:104C500031EA400C48BF34EA430C03D5FFF7E6FDC8
:104C6000FFF780FFF0BCBDE8008C2DE9804C70B4EC
:104C70009A46934691E8380007C810F0804F08BF65
:104C800013F0804F03D100F005F8FFF76BFFF0BC85
:104C9000BDE8008C20F07F4723F07F4C80EA0300C2
:104CA00000F0004007EB0C03A3F57C53A3F1FE03D7
:104CB00092F0000F00F0B38095F0000F00F07780C5
:104CC0002DE901494FEA114021EA00484FEA144614
:104CD00024EA064700FB06FC08FB06F607FB08F87B
:104CE00018EB06484CEB164C00FB07F718EB07488F
:104CF0004CEB17404FEA124B22EA0B4E4FEA154697
:104D000025EA06470BFB06FC0EFB06F607FB0EFE2C
:104D10001EEB064E4CEB164C0BFB07F71EEB074E3B
:104D20004CEB174B18EB0B0840F1000018EB0E0B87
:104D300058EB000840F100008F1A4FF000014FF0CF
:104D400000063CBFC943661B14BFB5EB040C002131
:104D50003CBFC943F61B4FEA174427EA04454FEA14
:104D60001C472CEA074C04FB076205FB07F70CFB0A
:104D700005F616EB074642EB174204FB0CFC16EB5C
:104D80000C4642EB1C421BEB060658EB020241416B
:104D90004EEA8E0E46EA9E0601D5BDE80189B61997
:104DA000524141EB0101A3F10103BDE801894FEA42
:104DB000144524EA05464FEA114721EA074C05FB52
:104DC00007F406FB07F70CFB06F111EB074144EB78
:104DD000174405FB0CFC11EB0C4144EB1C444FEA5F
:104DE000124722EA074C05FB07F206FB07F70CFB0C
:104DF00006F616EB074642EB174205FB0CFC16EBDA
:104E00000C4642EB1C456A1854F1000148BF70473C
:104E1000B619524141EB0101A3F10103704795F02E
:104E2000000F37D04FEA114221EA02464FEA1447F9
:104E300024EA074C02FB07F106FB07F70CFB06F41C
:104E400014EB074441EB174102FB0CFC14EB0C4440
:104E500041EB1C414FEA154725EA074C02FB07F5D9
:104E600006FB07F70CFB06F616EB074645EB174566
:104E700002FB0CFC16EB0C4645EB1C42121951F1DF
:104E8000000148BF7047B619524141EB0101A3F13F
:104E9000010370474FEA144524EA05464FEA1147DB
:104EA00021EA074C05FB07F106FB07F70CFB06F2AE
:104EB00012EB074241EB174105FB0CFC12EB0C42D5
:104EC00051EB1C414FF0000648BF7047921841EB70
:104ED0000101A3F101037047490050EAC12018BF46
:104EE00004204A0D18BF40F0010040F2FF72B2EBFF
:104EF000515F08BF40F00200012808BF052070473D
:104F000030380A2801D20120704700207047000085
:104F100010B500290AD00878002807D00548784441
:104F2000FBF7E4FE002801D0002010BD02487844C1
:104F300010BD00007A0900007209000021F0004253
:104F400001F00043A2F16052B2F5801F28BFD2F1F8
:104F50007F6C0BD95FEA001C43EAC20242EB50703F
:104F600018BF704728BF20F001007047B2F5801FBE
:104F7000BCBF184670474FEA410C1CF5001F02D217
:104F8000084600F010BC70B500F01CFA0000008963
:104F9000FFF7F6BF4FF00040A0F58000704700001B
:104FA00010B591EA030F48BF83F0004300F1668219
:104FB000841A71EB030C05D2121943EB0C03001B8E
:104FC00061EB0C014FEA1154A4EB135CDFF81CE118
:104FD0001EEA430F18BF9EEA445F00F0748021EA86
:104FE000045123EA0E0343F48013DCF1200E32D384
:104FF00022FA0CFE10EB0E0023FA0CFE41EB0E0120
:10500000CCF1200E03FA0EFE10EB0E00CCF1200EB8
:1050100051F10001B1F5801F32D201EB045112FAB7
:105020000EF2BDE8104058BF7047401C38BF5FEA21
:10503000420218BF7047002814BF20F0010041F160
:1050400000014FEA410313F5001F38BF7047A1F17B
:10505000C04100F005BA012A43EB0302ACF1200C79
:10506000DCF11F0E32BF4FF0000E23FA0CF310EBF1
:10507000030041EB0451B4EB115FD0D0A1EB04511C
:1050800001F58011490801EB04515FEA30000ED3AD
:1050900050F1000038BF12FA0EFE08D1BDE81040F2
:1050A000C9E7401C38BF5FEA4202CAD1C3E7BDE886
:1050B00010404FEA410313F5001F38BF7047A1F1BC
:1050C000C04100F0CDB99EEA445F08D011EA5E0FFE
:1050D000BDE8104004BF01F0004100207047BDE86A
:1050E000104070B500F06EF964FBBE3E0000E0FFBA
:1050F000491058BFC1F140415B1058BFC3F1404354
:105100008B42EFF30080704751EA030C17D41CF573
:10511000801F58BFBCF5801F00F10680994218BF60
:10512000704708BF9042704707D711F5801F58BFDE
:1051300013F5801F19D499427047894270471CF5B6
:10514000801F08D5BCF5801FF7D58B4218BF70476C
:1051500008BF824270474FF4001C1CEB410F38BF60
:105160001CEB430F01D28B42704770B500F02AF957
:10517000922449004FF000514FF08053FFF7B8BF21
:1051800051EA030C17D41CF5801F58BFBCF5801FD3
:1051900000F10680994218BF704708BF90427047DF
:1051A00007D711F5801F58BF13F5801F19D49942F6
:1051B0007047894270471CF5801F08D5BCF5801FD9
:1051C000F7D58B4218BF704708BF824270474FF433
:1051D000001C1CEB410F38BF1CEB430F01D28B426C
:1051E000704770B500F0EEF8922449004FF08051FE
:1051F0004FF00053FFF77CBF51EA030C17D41CF5A6
:10520000801F58BFBCF5801F00F10680994218BF6F
:10521000704708BF9042704707D711F5801F58BFED
:1052200013F5801F19D499427047894270471CF5C5
:10523000801F08D5BCF5801FF7D58B4218BF70477B
:1052400008BF824270474FF4001C1CEB410F38BF6F
:105250001CEB430F01D28B42704770B500F0B2F8DF
:10526000922449004FF000514FF08053FFF740BFA8
:1052700070B5DFF848C11CEA111E1EBF1CEA1315E9
:105280009EEA0C0F95EA0C0F00F06F8081EA030490
:105290004EEAD47EAE4421EA4C1123EA4C1341F489
:1052A000801143F48013AEF17F7EA1FB024CA0FB82
:1052B0000365361955EB0C05A1FB034C4CF10003BB
:1052C000A0FB021C16EB0C06654153F100030942DA
:1052D00018BF46F0010613F4007F0BD14FEA0331EB
:1052E0004FEA053041EA155140EA165034036FF099
:1052F00003020AE04FEAC3214FEAC52041EA5551B3
:1053000040EA5650F4026FF0020202EB2E4201EB2B
:10531000025585EACE710AD05FEA440C18BF24F02A
:10532000004450F1000041F1000120EAD47040F245
:10533000FE7C624500D270BDA84214BF4FF080448D
:105340004FF04044002E08BF0024BEF1806FA8BF7C
:10535000A1F1C041BDE8704080F2828001F1C041FE
:1053600001F000414FF0000070470CEA13159EEA6F
:105370000C0F18BF95EA0C0F06D081EA030E4FF010
:1053800000000EF0004170BD00F01CF88900013EE5
:1053900000F007B800F009B84FEA430C5FEA5C5C24
:1053A00008D081EA030100F05BB84FEA410C5FEAE4
:1053B0005C5CF6D102494FF0000070470000FF0727
:1053C0000000F87F0EF1020E2EF0030E5EF8046B63
:1053D000364205D4012A43EB030515F5001F12D808
:1053E000012841EB010C1CF5001F0CD80ED14FEA2F
:1053F000D17C0CEB4C0C0CF1020C15F5001F08BF16
:105400004CEBD37C04E04FF0080C01E04FEAD37C76
:105410000CEB4C0526FA05F606F00706B6F1040C6F
:1054200006D20EEB860CBDE870404CF0010C6047D4
:10543000DFE80CF0090B02024FF00041A1F500215A
:105440004FF0000070BD19461046012851EB0104D1
:1054500018BFD4F5001484BF002001F0004170BDD6
:105460000808A0F500114FEA3101704710B591EA24
:10547000030F48BF83F000433FF59AAD841A71EBE8
:10548000030C07D28CF0004C121943EB0C03001BE9
:1054900061EB0C014FEA1154A4EB135CDFF8A4E1BB
:1054A0001EEA430F18BF9EEA445F00F0B48021EA71
:1054B000045123EA6E035242C3EB6E0338BF5B1EF6
:1054C000DCF1200E25D322FA0CFE10EB0E0043FA7D
:1054D0000CFE41EB0E01CCF1200E03FA0EFE10EB98
:1054E0000E00CCF1200E51F1000129D401EB045142
:1054F00012FA0EF2BDE8104058BF7047401C1CBFA6
:10550000B2F1004F704700280CBF491C20F0010089
:10551000704712EB020E43EB030218BF4FF0010E6F
:105520004EEA4202ACF1200CDCF11E0E56D943FAD1
:105530000CFE10EB0E00CCF11E0E51F1FF31D5D553
:105540000EF1010E12FA0EFE404141EB010101EB9A
:10555000445C5FEA5C5C10D901EB045110EBDE7037
:1055600038BFBEF1004FBDE8104018BF704700289B
:105570000CBF491C20F00100704734D24FEAD42CF4
:1055800024F4006411F500111BD0B1FA81F20B3A3A
:10559000A41AA41ED2F12003914030FA03F3194358
:1055A000904001EBCC7101EB0451002CBDE81040A0
:1055B000A8BF704701F1C04101F000414FF0000069
:1055C0007047B0FA80F310FA03F102D1BDE8104041
:1055D0007047E41A173C4805C90AE2E701EB045199
:1055E000BDE81040704749104FEA300001EB04510C
:1055F000BDE8104002E04FF0000170474A0008BFCC
:105600000042F8D0B2F5001F28BF704701F00041FA
:105610004FF0000070479EEA445F07D011EA5E0F2A
:10562000BDE8104004BF002100207047BDE81040D5
:1056300070B5FFF7C7FE00BF40DFF63E104683F0AF
:10564000004170470000E0FF43004FEAD30C4FEAEF
:105650003C0C43401FBF40070CF1605113F0FE4F5C
:1056600070471CF0006F03D10CF000410020704720
:105670000CF0004343EA507040EACC0010B500F053
:105680004CF800BF000000924FEA0001FFF7E8BEAF
:105690004FF00041A1F500214FF00000704710B518
:1056A000FFF732FD0CBF0120002010BD10B5FFF741
:1056B0002BFD14BF0120002010BD10B5FFF760FDC9
:1056C0008CBF0120002010BD10B5FFF759FD2CBF85
:1056D0000120002010BD10B5FFF78EFD94BF012002
:1056E000002010BD10B5FFF787FD34BF012000205A
:1056F00010BD0000B0FA80F310FA03F2C3F19D036D
:105700000AD0D90501EB1220530638BF704700F1CB
:10571000010008BF20F0010070470EF1020E2EF0CC
:10572000030E5EF8044B244204D44FEA4102B2F166
:105730007F4F11D84FEA4003B3F17F4F0CD80ED101
:105740004FEAD07C0CEB4C0C0CF1020CB2F17F4F09
:1057500008BF4CEBD17C04E04FF0080C01E04FEAAD
:10576000D17C0CEB4C0324FA03F404F00704B4F1ED
:10577000040C06D20EEB840CBDE810404CF0010C7A
:105780006047DFE80CF0070802024FF00040A0F588
:10579000800010BD0846420018BFD2F1807288BF59
:1057A00000F0004010BDFF2141EAD050C005704715
:1057B000FAF7E6BF02400000000000A00000000071
:1057C00005400000000000C8000000000C40000080
:1057D0000000409C00000000194000000020BCBEFA
:1057E0000000000034400000BFC91B8E0000000410
:1057F000B5400000504BCFD06607E2CF010000005B
:105800006C4100003E8251AADFEEA7340100000087
:10581000D9420000DCB5A0E23A301F97FFFFFFFF3E
:10582000B4450000FD25A0C8E9A3C14FFFFFFFFF5D
:10583000FF3F00000000008000000000FF3F00006C
:1058400000000080000000000102000000000000D5
:10585000000001020304060708090000000001021D
:10586000030402030405060708090A0B0C0D0E0FBA
:10587000101000000E000000B858000800000020C2
:105880001000000028010008C8580008100000207F
:10589000284E0000440100081C00000043000000E6
:1058A000F8FFFFFF0C0000000E0000000F000000DA
:1058B0002E000000000000000100000010000000A9
:0858C0000024F400AAAAAAAA20
:04000005080000ED02
:00000001FF
